:020000040000FA
:1000000001288316FF2390008030810085018B0139
:100010008312073099008501A501A601212020083F
:100020004038A700A71303395820A50036208500C3
:100030002D20A50AA60A08302606031D1628A601AB
:100040000E28A101201AA10AA019A10A2019A10AAB
:100050002018A10AA10CA00C08002708A200FF305C
:10006000A300A30B3128A20B2F2808002508820724
:10007000013401340334033407341534313421346A
:100080000134013403340734173407341734073488
:100090000134033407341734373417340734033446
:1000A0000134013403340334073417340734033480
:0A00B00082070034083410341834BD
:02400E00D43F9D
:00000001FF
