:020000040000FA
:020000000528D1
:0800080009008316FF2390009C
:1000100080308100850120308B00831207309900E9
:100020008501A801A9012420230807397B20A80005
:10003000392085003020A80AA90A08302906031DA6
:100040001828A801A9011328A401231AA40AA31996
:10005000A40A2319A40A2318A40AA40CA30C0800B8
:100060005030A500FF30A600A60B3428A50B32287F
:1000700008002808820701340134033403340734AC
:10008000153431342134013401340334033407345A
:100090001534313421340134013403340734173436
:1000A0000734173407340134033407341734373432
:1000B0001734073403340134013403340334073470
:1000C000173407340334013403340734153431341E
:1000D0002134033403340134033407341534313408
:1000E0001134053403340134033407340334073442
:1000F00003340734033482070034083410341834CE
:08010000203428343034383477
:02400E00D43F9D
:00000001FF
