:020000040000FA
:020000000528D1
:0800080009008316FF2390009C
:1000100080308100850120308B00831207309900E9
:100020008501A801302085002720A80A2130280654
:100030000319A8011228A401231AA40AA319A40AC7
:100040002319A40A2318A40AA40CA30C08004E30F8
:10005000A500FF30A600A60B2B28A50B2928080019
:10006000280882070134033407341534313421342D
:10007000013403340734153431342134013403346A
:100080000734173407341734073401340334073482
:100090001734373417340734033401340334073446
:0A00A000173407340334033403342B
:02400E00D43F9D
:00000001FF
